:020000040000FA
:0400000091EF34F058
:10602A0012003550120002EC31F01200000ED56E4B
:0C603A00D58E1200536E53C035F01200DA
:106047003030303184525201039AEC33F03AEC305D
:10605700F012003E0E536E000E546E1200F2A4377B
:10606700EF30F039EF30F032EF30F01200000E3A37
:106077006E000E396E000E386E000E376E12009AE3
:10608700EC31F0C7EC33F01BEC30F040EC31F0CEE4
:10609700EC32F01200536E9EA854EF30F056EF30FA
:1060A700F04FEF30F053C0ADFF12009492030ECAC9
:1060B70012CA840C0EBA6E000E626E640E616EA276
:1060C700EC30F012002C0EAC6E900EAB6E080EB8D2
:1060D7006E000EB06E220EAF6E948C948E1200601E
:1060E7006E000E5D6E010E5C6E60506DEC33F0005D
:1060F7000E546E500E536E15EC30F01200606E00A9
:106107000E5D6E000E5C6E60506DEC33F0000E5449
:106117006E020E536E82EC31F01200D89053345554
:106127006E5434566E551E561E320E555E000E5670
:106137005A5650D76E55C0D6FFF2941200480E53E8
:106147006EE80E546E010E556E000E566E61C05706
:10615700F062C058F0596A5A6A71EC39F05304CBAF
:106167006E120053505502F3CF57F0F4CF58F05347
:10617700505602F350582654505502F3505826579C
:10618700C053F058C054F012005E6E5EC059F05A0A
:106197006AF4EC32F0000E546E1D0E536E5CC0555F
:1061A700F05DC056F0B1EC3DF068EC32F012003B08
:1061B700EC35F0586E3D505818D8B4E5EF30F0E79D
:1061C700EF30F0ECEF30F058C03DF05850EDEF30C5
:1061D700F0000E12001BEC33F059C05DF05AC05EA0
:1061E700F0000E606E0F0E5F6EF6EC33F05D502B15
:1061F7006E1BEC33F059500F0B2C6E12003550D834
:10620700A408EF31F00AEF31F00FEF31F02E0E4E08
:10621700EC30F015EF31F0860E626EA00E616EA2C3
:10622700EC30F01200000E546E080E536E000E563E
:106237006E010E556EB1EC3DF0000E546E080E5314
:106247006E000E566E000E556EB1EC3DF01200005A
:106257000E546E1F0E536E000E566E010E556EB124
:10626700EC3DF0000E546E1F0E536E000E566E007E
:106277000E556EB1EC3DF01200A0EC36F0EDEC31AE
:10628700F0460E82EC30F0000E6C6E180E73EC3098
:10629700F06C2A070E6C6453EF31F055EF31F0497B
:1062A700EF31F01200000E536EABA25DEF31F05FDD
:1062B700EF31F061EF31F0AB98AB889EAA66EF3112
:1062C700F068EF31F06AEF31F0AECF53F053501270
:1062D7000056EC31F0546E210E4EEC30F033505432
:1062E70018D8B479EF31F07BEF31F080EF31F0540B
:1062F700C033F0545081EF31F0000E1200000E57FA
:106307006E000E566E8AEF31F0564A572A53505692
:106317005C5750800A556E5450800A5558D8A0973C
:10632700EF31F099EF31F088EF31F0120029EC32BC
:10633700F0000E546E0A0E536E000E566E010E5587
:106347006E8AEC3CF0000E546E090E536E000E562A
:106357006E010E556E8AEC3CF00C0EC16E120000F9
:106367000E546E000E536E6F0E5324D96E000E54EA
:1063770020DA6E300EDF6E534A542A54BECDEF3109
:10638700F0545009E1050E535CD8A0CDEF31F0CFA2
:10639700EF31F0B7EF31F0120061506210D8A4D797
:1063A700EF31F0D9EF31F0DEEF31F063500F0B80B2
:1063B7000F82EC30F061046210D8A4E5EF31F0E70A
:1063C700EF31F0ECEF31F063500F0BC00F82EC3080
:1063D700F01200000E6A6E000E6B6E6BC061F0006B
:1063E7000E626E6A508AEC38F06B2A0F0E6B64FFF0
:1063F700EF31F001EF32F0F1EF31F06A2A0E0E6A59
:106407006408EF32F00AEF32F0EFEF31F0120001DB
:106417000E3624536E546A000E5422000E566E0335
:106427000E556E48EC36F05350366E3650150D80CB
:106437000EF324D96E000EF420DA6E10EE3EF0143F
:106447000EDBCFE3FFE806FCE21200000E546E1FDE
:106457000E536E000E566E000E556E8AEC3CF00021
:106467000E546E080E536E000E566E000E556E8A51
:10647700EC3CF0000E546E1E0E536E000E566E006E
:096487000E556E8AEC3CF0120087
:10649100737461722077617273000000000000ABB9
:1064A1007F157FBD7E746574726973000000000002
:1064B10000000000AC7F5A7EF77D7061636D616EF4
:1064C100000000000000000000AD7F8C7F6D7F00A8
:1064D1000E546E1C0E536E000E566E010E556EB1AB
:1064E100EC3DF0000E546E050E536E15EC30F000CD
:1064F1000E546E1C0E536E000E566E000E556EB18C
:10650100EC3DF0000E546E050E536E15EC30F0129A
:1065110000010E82EC30F0000E626E000E616E0022
:106521000E646E000E636ED0EC31F03E0E73EC30F3
:10653100F03B5057EC37F0000E626E010E616E00B9
:106541000E646E000E636ED0EC31F03B28030B57E6
:10655100EC37F01200636E3550D8A4B2EF32F0B4CC
:10656100EF32F0BAEF32F06350300F4EEC30F0CD35
:10657100EF32F06350020DB10EF324F66E7D0EF48E
:1065810020F76E0900F5CF61F00A00F5CF62F0A2A5
:10659100EC30F0320E5BEC34F01200010E016E00B3
:1065A1000E026E000E036E000E046E010E766EB3C7
:1065B100EC31F0EEEC30F0EDEC31F002C061F001C5
:1065C1000E626E01508AEC38F004C061F0010E6277
:1065D1006E03508AEC38F02CC061F0010E626E2B14
:1065E100508AEC38F01200000E546E080E536E0003
:1065F1000E566E000E556EB1EC3DF0000E5B6E0056
:106601000E546E1E0E536E800E5914556E566AB19D
:10661100EC3DF016EC31F0D89059365A365B2A072A
:106621000E5B6416EF33F018EF33F000EF33F02B0D
:10663100EC31F0120072C05BF073C05CF0D8905C7A
:10664100325B32D8905C325B32D8905C325B32FF85
:106651000E5B14726E030E5C14736EBF0E722453C4
:106661006E000E7320546E72C055F073C056F0B5B3
:10667100EC30F053C072F054C073F072C059F07333
:10668100C05AF01200010E82EC30F0000E626E0072
:106691000E616E000E646E000E636ED0EC31F00080
:1066A1000E73EC30F0020E73EC30F0040E73EC302C
:1066B100F0000E626E010E616E000E646E000E63DC
:1066C1006ED0EC31F0010E73EC30F0030E73EC3050
:1066D100F0050E73EC30F012005F6E5FC05EF05E8D
:1066E1003A0F0E5E165E50596E5A6AF4EC32F000A3
:1066F1000E546E1D0E536E5CC055F05DC056F0B168
:10670100EC3DF068EC32F05FC05EF00F0E5E165E9D
:1067110050596E5A6AF4EC32F0000E546E1D0E534D
:106721006E5CC055F05DC056F0B1EC3DF068EC32E6
:10673100F0120043EC33F0000E626E000E616E0049
:106741000E646E030E636ED0EC31F0060E73EC3006
:10675100F0000E626E010E616E000E646E030E6338
:106761006ED0EC31F0060E73EC30F0000E626E006C
:106771000E616E000E646E040E636ED0EC31F0DCBF
:106781000E616E7F0E626E77EC35F0120066EC30B2
:10679100F059EC30F020EEE9F010EE80F0140EDB51
:1067A100CFE3FFE806FCE220EED4F010EE95F01402
:1067B1000EDBCFE3FFE806FCE220EEBFF010EEAA0D
:1067C100F0140EDBCFE3FFE806FCE23650150D8036
:1067D1000EF324D96E000EF420DA6E10EE3EF014A2
:1067E1000EDBCFE3FFE806FCE212005F506010D839
:1067F100B4FDEF33F0FFEF33F023EF34F0010E611E
:106801006E07EF34F0D8905F366036612A60AE0CC7
:10681100EF34F00EEF34F003EF34F05F505D5C6065
:10682100505E58D8A017EF34F019EF34F01DEF3453
:10683100F05F505D5E60505E5AD89060325F3261A9
:106841002E0EEF34F05DC05DF05EC05EF01200719F
:106851002A000E556E020E546E6F0E5424D96E002E
:106861000E5520DA6E390EDF6439EF34F03BEF3428
:10687100F04AEF34F06F0E5424D96E000E5520DA31
:106881006E0A0EDF5E6E0E5424D96E000E5520DAAC
:106891006EDF2A5406D8A0550655BE5AEF34F0557E
:1068A1005006E15404D8B058EF34F05AEF34F02DCB
:1068B100EF34F012005C6E010ECB24536E546A006B
:1068C1000E54225CC055F0566AB5EC30F053C05DF1
:1068D100F054C05EF05DC053F05EC054F0000E563F
:1068E1006E190E556E01EC35F053C05DF054C05E6B
:1068F100F0FF0E5D16030E5E165DC05AF05EC05BC2
:10690100F0D8905B325A32D8905B325A325A50BB2F
:106911006E5DC05AF0030E5A165A38F00BBA1212B5
:1069210000910EF66E640EF76E000EF86E00EEBF6B
:10693100F010EE3FF00900F5CFEEFFE550E150FA1F
:10694100E1470EF66E600EF76E000EF86E00EE6F08
:10695100F010EE09F00900F5CFEEFFE550E150FA35
:10696100E101EE00F0300EEE6AE806FDE100EE8096
:10697100F03F0EEE6AE806FDE100EE01F0520EEE88
:106981006AE806FDE1000EF86E0001F9EF35F02B23
:10699100500118D8A4CFEF34F0D1EF34F0E9EF343F
:1069A100F02C500218D8A4D8EF34F0DAEF34F0E923
:1069B100EF34F0EEEC30F028EC34F0140E7660E4B5
:1069C100EF34F0E6EF34F0E9EF34F0762A00EF35FA
:1069D100F07650020D020EF324D96E000EF420DA87
:1069E1006EDF50616E000E626E7650020D010EF385
:1069F10024D96E000EF420DA6EDF508AEC38F012E2
:106A010000000E586E000E576E55505610D8B40C3B
:106A1100EF35F00EEF35F036EF35F0010E596E1609
:106A2100EF35F0D89055365636592A56AE1BEF350C
:106A3100F01DEF35F012EF35F0D890573658365536
:106A410050535C56505458D8A029EF35F02BEF35F0
:106A5100F030EF35F05550535E5650545A5780D8A8
:106A61009056325532592E1DEF35F057C053F0581C
:106A7100C054F01200000E576E000E566E56C053F1
:106A8100F0010E546E000E556E532A4BEF35F0D8BF
:106A91009054365536532E48EF35F0315054163256
:106AA10050551654505510D8B459EF35F05BEF35A9
:106AB100F065EF35F0ED0E5624F66E7D0E5720F79A
:106AC1006E0800F55076EF35F0564A572A57BE73D7
:106AD100EF35F0575009E10A0E565CD8A073EF3537
:106AE100F075EF35F03FEF35F0000E1200000E6645
:106AF1006E000E656E97EF35F065506124636E662A
:106B0100506220646E63C0F6FF64C0F7FFF86A0547
:106B11000EF76403D00800F55005D0F6CFE9FFF772
:106B2100CFEAFFEF5073EC30F0654A662A65506199
:106B310024636E66506220646E63C0F6FF64C0F722
:106B4100FFF86A050EF76403D00800F55005D0F68A
:106B5100CFE9FFF7CFEAFFEF500009D8A4B3EF3533
:106B6100F0B5EF35F07DEF35F01200000E576E02F3
:106B71000E566EE5EF35F0D8905634D96E5734DAAB
:106B81006E010ED926000EDA220150DE18D8A4CCEF
:106B9100EF35F0CEEF35F0E3EF35F0D8905634D93C
:106BA1006E5734DA6E020ED926000EDA22DE50025A
:106BB10018D8A4DEEF35F0E0EF35F0E3EF35F00162
:106BC1000EF8EF35F0564A572A7650536E546A56EE
:106BD10050535C5450800A556E5750800A5558D80E
:106BE100B0F5EF35F0F7EF35F0BCEF35F0000E12F0
:106BF1000043EC30F07750D8A401EF36F003EF36C4
:106C0100F008EF36F0FAEC38F0776EFBEF35F00272
:106C11000E7718D8A40FEF36F011EF36F016EF36D5
:106C2100F02EEC3BF0776EFBEF35F07704D8A41C27
:106C3100EF36F01EEF36F024EF36F028EC30F0029C
:106C41000E776EFBEF35F0030E7718D8A42BEF36D5
:106C5100F02DEF36F037EF36F0000E6B6E000E6A56
:106C61006E89EC32F0000E776EFBEF35F0040E7793
:106C710018D8A43EEF36F040EF36F044EF36F0CEB0
:106C8100EC32F02DEF36F0FBEF35F000EF00F000C5
:106C91000E586E54BE51EF36F04FEF36F057EF36C7
:106CA100F0536C541ED8B0542A010E586E56BE5E75
:106CB100EF36F05CEF36F062EF36F0556C561ED8C9
:106CC100B0562A55505610D8B469EF36F06BEF36EE
:106CD100F08FEF36F0010E576E73EF36F0D8905506
:106CE100365636572A56AE78EF36F07AEF36F06FD1
:106CF100EF36F05550535C56505458D8A083EF36B8
:106D0100F085EF36F089EF36F05550535E5650540A
:106D11005AD89056325532572E7AEF36F05850D80D
:106D2100B495EF36F097EF36F09BEF36F0536C5495
:106D31001ED8B0542A53C053F054C054F01200006E
:106D41000E546E1C0E536E000E566E000E556E8A5A
:106D5100EC3CF0000E546E1D0E536E000E566E008C
:106D61000E556E8AEC3CF029EC32F0000E546E0F99
:106D71000E536E82EC31F0000E5D6E000E5C6E0300
:106D81000EC8EC30F0000E546E050E536E82EC31DD
:106D9100F0000E5D6E000E5C6E030EC8EC30F0006C
:106DA1000E546EA00E536E15EC30F0000E5D6E00A9
:106DB1000E5C6E030EC8EC30F0000E546EA00E5344
:106DC1006E15EC30F0000E5D6E000E5C6E020EC8AA
:106DD100EC30F0000E546E0A0E536E82EC31F02846
:106DE1000E82EC30F00C0E82EC30F0010E82EC30B1
:106DF100F01200010E82EC30F0000E626E000E61A6
:106E01006E000E646E020E636ED0EC31F0BD0E6149
:106E11006E7F0E626E77EC35F0000E626E010E61D0
:106E21006E000E646E020E636ED0EC31F0D30E6113
:106E31006E7F0E626E77EC35F0000E6A6E000E69A1
:106E41006E6F0E6924D96E000E6A20DA6EDF507300
:106E5100EC30F0694A6A2A6ABE38EF37F06A5009A5
:106E6100E1030E695CD8A038EF37F03AEF37F02133
:106E7100EF37F0000E686E000E676E4E0E546E20F6
:106E81000E536E91EC30F032EC30F0674A682A68AC
:106E9100BE54EF37F0685009E1640E675CD8A05426
:106EA100EF37F056EF37F03EEF37F01200696E9A88
:106EB100EF37F0C90E616E7F0E626E77EC35F0B779
:106EC100EF37F0AE0E616E7F0E626E77EC35F0B784
:106ED100EF37F0F80E616E7F0E626E77EC35F02DB4
:106EE100EC30F053C061F054C062F077EC35F0B78C
:106EF100EF37F0F20E616E7F0E626E77EC35F016B1
:106F0100EC30F00009D8A488EF37F08AEF37F0921F
:106F1100EF37F0E40E616E7F0E626E77EC35F0B7FD
:106F2100EF37F0EB0E616E7F0E626E77EC35F0B7E6
:106F3100EF37F06950676E686A6850000AD8B4A4E8
:106F4100EF37F0B7EF37F06750000AD8B45AEF3790
:106F5100F0010AD8B462EF37F0030AD8B46AEF3708
:106F6100F0010AD8B47AEF37F0B7EF37F0120039F1
:106F710050D8B4BEEF37F0C0EF37F0C3EF37F03978
:106F81000620EF38F03750D8B4C9EF37F0CBEF37E0
:106F9100F0D1EF37F0000E376E02EC31F020EF3810
:106FA100F03850D8B4D7EF37F0D9EF37F0DCEF37FE
:106FB100F0380620EF38F020EE4DF0DECFF6FFDDA1
:106FC100CFF7FF0800F5503A18D8A4EAEF37F0ECF4
:106FD100EF37F0EEEF37F0000E3A6E3A504F24647F
:106FE1006E000E5020656E64C0F6FF65C0F7FF08A5
:106FF10000F550ABEC32F03A505124646E000E5261
:1070010020656E64C0F6FF65C0F7FF0800F5CF3953
:10701100F0010E376E3A505124646E000E52206515
:107021006E64C0F6FF65C0F7FF0800F5CF66F0D8C3
:10703100906632D8906632D8906630386E3A2A120D
:107041000076C05BF05B50D8A429EF38F02BEF3805
:10705100F02DEF38F048EF38F05B50596E5A6AD88E
:107061009059365A36FF0E5924D96EFF0E5A20DA3E
:107071006E5B50020D010EF324E16E000EF420E26E
:107081006EDECFE6FFDDCFE5FF5B0623EF38F07460
:10709100C075F058EF38F0012A75EF38F001067528
:1070A100EF38F0020675EF38F0022A75EF38F07507
:1070B10050596E5A6A5A50000AD8B462EF38F075C6
:1070C100EF38F05950440AD8B455EF38F0080AD8CF
:1070D100B44FEF38F01E0AD8B44CEF38F0070AD895
:1070E100B452EF38F075EF38F001500F0F016E0117
:1070F100C053F0546A000E566E0F0E556E48EC36B2
:10710100F05350016E0250100F026E02500F0B022D
:107111006E1200696E000E686E000E676E69C066C1
:10712100F0090E696497EF38F099EF38F0A2EF3863
:10713100F0200E6726000E68226950F60F666EB1C8
:10714100EF38F0040E6964A8EF38F0AAEF38F0B117
:10715100EF38F0100E6726000E68226950FB0F66AB
:107161006E61506726000E68226250D8B4BBEF38BA
:10717100F0BDEF38F0D4EF38F066500408636E01CB
:107181000E646E632AC7EF38F0D8906436632EC55B
:10719100EF38F0000E6724D96E010E6820DA6E64B4
:1071A10050DF12ECEF38F066500408636E010E6494
:1071B1006E632ADEEF38F0D8906436632EDCEF3848
:1071C100F06450FF0A656E000E6724D96E010E68E7
:1071D10020DA6E6550DF166750400F82EC30F00008
:1071E1000E6724D96E010E6820DA6EDF5073EC3021
:1071F100F01200F7EC39F03BEC35F06E18D8B4041E
:10720100EF39F006EF39F023EF39F0DBEC30F06EB7
:107211006E57EF39F03B2A030E3B163BC06AF06B09
:107221006A89EC32F023EF39F03B06040E3B260C61
:10723100EF39F0CEEC32F0010E70EF39F00BEC3299
:10724100F00EEF39F0000E70EF39F016EC30F0006F
:1072510009D8A42EEF39F030EF39F035EF39F001CC
:107261000E1FEC30F00EEF39F0000E1FEC30F00E77
:10727100EF39F03B506C6E6D6A6D50000AD8B44422
:10728100EF39F023EF39F06C50000AD8B41AEF3916
:10729100F0010AD8B41CEF39F0030AD8B41FEF3952
:1072A100F0010AD8B426EF39F023EF39F06E506CB3
:1072B1006E6D6A6D50000AD8B461EF39F023EF3971
:1072C100F06C50440AD8B40BEF39F0170AD8B43A2D
:1072D100EF39F0060AD8B415EF39F023EF39F0127F
:1072E10000000E5C6E5ABE7AEF39F078EF39F08407
:1072F100EF39F05A1E591E581E576C000E5822596C
:10730100225A22010E5C6E56BE8BEF39F089EF399D
:10731100F095EF39F0561E551E541E536C000E5455
:107321002255225622010E5C1A000E5D6E000E5E81
:107331006E000E5F6E000E606E5750581059105A55
:1073410010D8B4A6EF39F0A8EF39F0DEEF39F0012B
:107351000E5B6EB2EF39F0D8905736583659365A1F
:10736100365B2A5AAEB7EF39F0B9EF39F0ACEF39E5
:10737100F0D8905D365E365F3660365750535C58B4
:10738100505458595055585A505658D8A0CBEF39E7
:10739100F0CDEF39F0D6EF39F05750535E585054D5
:1073A1005A5950555A5A50565A5D80D8905A3259A6
:1073B10032583257325B2EB9EF39F05C50D8B4E411
:1073C100EF39F0E6EF39F0EEEF39F0601E5F1E5E47
:1073D1001E5D6C000E5E225F2260225DC053F05E76
:1073E100C054F05FC055F060C056F01200000E307E
:1073F1006E000E2F6E000E606E000E5F6E60BE0B93
:10740100EF3AF0605009E1050E5F5CD8A00BEF3A4E
:10741100F00DEF3AF00FEF3AF070EF3AF05FC05C29
:10742100F0030E5C26010E5D6E000E5E6E5C2A1D81
:10743100EF3AF0D8905D365E365C2E1AEF3AF05D89
:10744100C059F05EC05AF0F4EC32F0000E546E0AEE
:107451000E536ED5EC3BF053505410D8B433EF3A81
:10746100F035EF3AF048EF3AF05FC05CF0010E5DA5
:107471006E000E5E6E5C2A41EF3AF0D8905D365E8A
:10748100365C2E3EEF3AF05D502F125E5030120006
:107491000E546E090E536ED5EC3BF053505410D878
:1074A100B455EF3AF057EF3AF06CEF3AF05FC05C49
:1074B100F0050E5C26010E5D6E000E5E6E5C2A65A7
:1074C100EF3AF0D8905D365E365C2E62EF3AF05DB1
:1074D100502F125E5030125F4A602AFFEF39F02FB1
:1074E100502D1807E130502E18D8A47AEF3AF07CCD
:1074F100EF3AF07FEF3AF03C0685EF3AF0010E3CAF
:107501006E2FC02DF030C02EF03C50D8A48BEF3A36
:10751100F08DEF3AF091EF3AF02DC031F02EC032FC
:10752100F01200DBEC30F06D6E6D50D8A49BEF3A99
:10753100F09DEF3AF00BEF3BF06CEC31F06D6E0B20
:10754100EF3BF04C0E7518D8A4A9EF3AF0ABEF3A27
:10755100F0B0EF3AF074C065F0666AB3EF3AF06DDF
:10756100C065F0666A65C074F001507226000E7342
:10757100222CEF3BF0520E7518D8A4C2EF3AF0C49A
:10758100EF3AF0C9EF3AF074C067F0686ACCEF3AAD
:10759100F06DC067F0686A67C074F002507226002F
:1075A1000E73222CEF3BF0440E7518D8A4DBEF3A92
:1075B100F0DDEF3AF0E2EF3AF074C069F06A6AE5A3
:1075C100EF3AF06DC069F06A6A69C074F0015072F7
:1075D1005E000E735A2CEF3BF0550E7518D8A4F4CB
:1075E100EF3AF0F6EF3AF0FBEF3AF074C06BF06C63
:1075F1006AFEEF3AF06DC06BF06C6A6BC074F0021A
:1076010050725E000E735A2CEF3BF018EC30F00311
:107611000E2DEF3BF06D50636E646A6450000AD822
:10762100B415EF3BF02CEF3BF06350440AD8B4EDB6
:10763100EF3AF0080AD8B4BBEF3AF01E0AD8B4A268
:10764100EF3AF0010AD8B406EF3BF0060AD8B4D4F9
:10765100EF3AF02CEF3BF0020E1200130E546E883D
:107661000E536E91EC30F0B8EC37F01E0E34603CE6
:10767100EF3BF03EEF3BF056EF3BF034A043EF3BE6
:10768100F045EF3BF049EF3BF0F7EC39F0D0EF3B41
:10769100F092EC3AF0030AD8A451EF3BF053EF3BE0
:1076A100F0D0EF3BF0030ED4EF3BF01E0E3418D8B0
:1076B100A45DEF3BF05FEF3BF063EF3BF0C8EC34D0
:1076C100F0D0EF3BF01F0E3418D8A46AEF3BF06CFA
:1076D100EF3BF070EF3BF021EC38F0D0EF3BF020C6
:1076E1000E3418D8A477EF3BF079EF3BF088EF3BED
:1076F100F0B6EC35F00009D8B481EF3BF083EF3BF5
:10770100F0D0EF3BF0FAEC36F0040ED4EF3BF02171
:107711000E3418D8A48FEF3BF091EF3BF09AEF3B7A
:10772100F002C061F0010E626E01508AEC38F0D0B7
:10773100EF3BF0220E3418D8A4A1EF3BF0A3EF3BAE
:10774100F0ACEF3BF02CC061F0010E626E2B508A61
:10775100EC38F0D0EF3BF0230E3418D8A4B3EF3B54
:10776100F0B5EF3BF0BDEF3BF08C0E82EC30F06FEB
:107771005073EC30F0D0EF3BF0240E3418D8A4C491
:10778100EF3BF0C6EF3BF0CEEF3BF0705073EC30C7
:10779100F0715073EC30F0D0EF3BF0000E346E34EA
:1077A1002A32EC30F0020E120054BEE3EF3BF054EB
:1077B1005007E1080E535CD8B0E1EF3BF0E3EF3B3B
:1077C100F0F7EF3BF053C055F0010E566E552AEC21
:1077D100EF3BF0D8905636552EEAEF3BF0565080ED
:1077E10014576E5750536E546A89EF3CF054BE05DE
:1077F100EF3CF0545007E1100E535CD8B003EF3C5E
:10780100F005EF3CF01BEF3CF053C055F0F80E557E
:1078110026010E566E552A10EF3CF0D8905636557B
:107821002E0EEF3CF056508114576E5750536E5444
:107831006A89EF3CF054BE29EF3CF0545007E1183F
:107841000E535CD8B027EF3CF029EF3CF03FEF3C02
:10785100F053C055F0F00E5526010E566E552A34E0
:10786100EF3CF0D8905636552E32EF3CF056508210
:1078710014576E5750536E546A89EF3CF054BE4D05
:10788100EF3CF0545007E1200E535CD8B04BEF3C75
:10789100F04DEF3CF063EF3CF053C055F0E80E556E
:1078A10026010E566E552A58EF3CF0D890563655A3
:1078B1002E56EF3CF056508314576E5750536E546A
:1078C1006A89EF3CF054BE71EF3CF0545007E12857
:1078D1000E535CD8B06FEF3CF071EF3CF087EF3C9A
:1078E100F053C055F0E00E5526010E566E552A7C18
:1078F100EF3CF0D8905636552E7AEF3CF056508436
:1079010014576E5750536E546A89EF3CF0536854C4
:1079110068120054BE98EF3CF0545007E1080E5332
:107921005CD8B096EF3CF098EF3CF0C2EF3CF055DC
:10793100505610D8B49FEF3CF0A1EF3CF0B1EF3CB2
:10794100F053C057F0010E586E572AAAEF3CF0D8F9
:10795100905836572EA8EF3CF058509212B0EF3D98
:10796100F053C057F0010E586E572ABAEF3CF0D8C9
:10797100905836572EB8EF3CF05850FF0A9216B087
:10798100EF3DF054BED0EF3CF0545007E1100E53E0
:107991005CD8B0CEEF3CF0D0EF3CF0FEEF3CF055C0
:1079A100505610D8B4D7EF3CF0D9EF3CF0EBEF3C98
:1079B100F053C057F0F80E5726010E586E572AE4BF
:1079C100EF3CF0D8905836572EE2EF3CF0585093E8
:1079D10012B0EF3DF053C057F0F80E5726010E5884
:1079E1006E572AF6EF3CF0D8905836572EF4EF3CFC
:1079F100F05850FF0A9316B0EF3DF054BE0CEF3D26
:107A0100F0545007E1180E535CD8B00AEF3DF00C6A
:107A1100EF3DF03AEF3DF055505610D8B413EF3D1D
:107A2100F015EF3DF027EF3DF053C057F0F00E5742
:107A310026010E586E572A20EF3DF0D89058365740
:107A41002E1EEF3DF058509412B0EF3DF053C05749
:107A5100F0F00E5726010E586E572A32EF3DF0D83E
:107A6100905836572E30EF3DF05850FF0A9416B01B
:107A7100EF3DF054BE48EF3DF0545007E1200E5366
:107A81005CD8B046EF3DF048EF3DF076EF3DF05564
:107A9100505610D8B44FEF3DF051EF3DF063EF3D3C
:107AA100F053C057F0E80E5726010E586E572A5C66
:107AB100EF3DF0D8905836572E5AEF3DF05850957B
:107AC10012B0EF3DF053C057F0E80E5726010E58A3
:107AD1006E572A6EEF3DF0D8905836572E6CEF3D19
:107AE100F05850FF0A9516B0EF3DF054BE84EF3DBB
:107AF100F0545007E1280E535CD8B082EF3DF0847A
:107B0100EF3DF0B0EF3DF055505610D8B48BEF3D3E
:107B1100F08DEF3DF09FEF3DF053C057F0E00E5771
:107B210026010E586E572A98EF3DF0D890583657D7
:107B31002E96EF3DF058509612B0EF3DF053C057DE
:107B4100F0E00E5726010E586E572AAAEF3DF0D8E5
:107B5100905836572EA8EF3DF05850FF0A9616124E
:107B61000054BEBFEF3DF0545007E1080E535CD8FE
:107B7100B0BDEF3DF0BFEF3DF0E9EF3DF0555056A0
:107B810010D8B4C6EF3DF0C8EF3DF0D8EF3DF0534B
:107B9100C057F0010E586E572AD1EF3DF0D89058DA
:107BA10036572ECFEF3DF058508012D7EF3EF053AD
:107BB100C057F0010E586E572AE1EF3DF0D89058AA
:107BC10036572EDFEF3DF05850FF0A8016D7EF3EB3
:107BD100F054BEF7EF3DF0545007E1100E535CD85E
:107BE100B0F5EF3DF0F7EF3DF025EF3EF0F80E5325
:107BF10026FF0E542255505610D8B402EF3EF00421
:107C0100EF3EF014EF3EF053C057F0010E586E579F
:107C11002A0DEF3EF0D8905836572E0BEF3EF05814
:107C2100508112D7EF3EF053C057F0010E586E57F6
:107C31002A1DEF3EF0D8905836572E1BEF3EF058D4
:107C410050FF0A8116D7EF3EF054BE33EF3EF05499
:107C51005007E1180E535CD8B031EF3EF033EF3EE0
:107C6100F061EF3EF0F00E5326FF0E5422555056B0
:107C710010D8B43EEF3EF040EF3EF050EF3EF053EF
:107C8100C057F0010E586E572A49EF3EF0D8905870
:107C910036572E47EF3EF058508212D7EF3EF05341
:107CA100C057F0010E586E572A59EF3EF0D8905840
:107CB10036572E57EF3EF05850FF0A8216D7EF3E47
:107CC100F054BE6FEF3EF0545007E1200E535CD8E4
:107CD100B06DEF3EF06FEF3EF09DEF3EF0E80E53DA
:107CE10026FF0E542255505610D8B47AEF3EF07C40
:107CF100EF3EF08CEF3EF053C057F0010E586E5737
:107D01002A85EF3EF0D8905836572E83EF3EF05833
:107D1100508312D7EF3EF053C057F0010E586E5703
:107D21002A95EF3EF0D8905836572E93EF3EF058F3
:107D310050FF0A8316D7EF3EF054BEABEF3EF0542E
:107D41005007E1280E535CD8B0A9EF3EF0ABEF3EEF
:107D5100F0D7EF3EF0E00E5326FF0E542255505659
:107D610010D8B4B6EF3EF0B8EF3EF0C8EF3EF05396
:107D7100C057F0010E586E572AC1EF3EF0D8905807
:107D810036572EBFEF3EF058508412D7EF3EF053D6
:107D9100C057F0010E586E572AD1EF3EF0D89058D7
:107DA10036572ECFEF3EF05850FF0A8416120000CE
:107DB10000000000000000000000000000000000C2
:107DC10000000000000000000000000000000000B2
:107DD10000000000000000000000000000000000A2
:107DE100000000000000000000000000554C44525B
:107DF1005358414259732814142814142814142870
:107E010014143C1428282828142814143C14281469
:107E1100143C142814142814142828282828282845
:107E210014142814142814142814143C1428282871
:107E310028142814143C142814143C14281414284D
:107E410014142828282828285050505050505028C1
:107E51001450505050282850500B060709070604AB
:107E610004070B09070607090B07040404060709A1
:107E71000C100E0C0B070B0907060607090B07046C
:107E8100041D0B06070907060404070B090706076B
:107E9100090B070404040607090C100E0C0B070B51
:107EA1000907060607090B0704041D0B0709060746
:107EB1000403061D0B070906070B100F181818609D
:107EC10060181818603018181860301818186018E1
:107ED10018186060181818603018181860301818D1
:107EE1001860240C48181818181818181830183069
:107EF100240C481818181818240C60181848181859
:107F0100181818181818301830240C301830183078
:107F1100183018C00505050C1311100E1813111097
:107F21000E18131110110E0707070C1311100E185C
:107F31001311100E18131110110E07070909111052
:107F41000E0C0C0E100E090B0707090911100E0C6F
:107F5100130E0E1D07090911100E0C0C0E100E093F
:107F61000B131318161413110F0E0C130F0F0F0F01
:107F710008171E0F0F0F0F08171E0F0F0F0F0817EF
:107F81001E08080808080808080F1E06120D0A1224
:107F91000D0A07131A17131A1706120D0A120D0AE2
:107FA1000A0B0C0C0D0E0E0F101258631F436F6E4F
:107FB10074696E756172204A6F676F00566F6365F1
:107FC10020706572646575004E6F766F204A6F6729
:107FD1006F00506F6E746F733A2000506F6E746F44
:107FE100733A0073657269616C0062757A7A6572C1
:0E7FF10000536F6D3A20004D75733A2000006A
:020000040020DA
:08000000FFFFFFFFFFFFFFFF00
:020000040030CA
:0E000000FF071F1FFF8385FF0FC00FE00F409B
:00000001FF
